{
  "contractName": "Faucet",
  "abi": [
    {
      "inputs": [
        {
          "internalType": "address",
          "name": "_tokenInstance",
          "type": "address"
        },
        {
          "internalType": "string",
          "name": "_faucetName",
          "type": "string"
        }
      ],
      "stateMutability": "nonpayable",
      "type": "constructor"
    },
    {
      "anonymous": false,
      "inputs": [
        {
          "indexed": true,
          "internalType": "address",
          "name": "sender",
          "type": "address"
        },
        {
          "indexed": false,
          "internalType": "uint256",
          "name": "value",
          "type": "uint256"
        }
      ],
      "name": "Deposit",
      "type": "event"
    },
    {
      "anonymous": false,
      "inputs": [
        {
          "indexed": false,
          "internalType": "bool",
          "name": "status",
          "type": "bool"
        }
      ],
      "name": "FaucetOff",
      "type": "event"
    },
    {
      "anonymous": false,
      "inputs": [
        {
          "indexed": false,
          "internalType": "bool",
          "name": "status",
          "type": "bool"
        }
      ],
      "name": "FaucetOn",
      "type": "event"
    },
    {
      "anonymous": false,
      "inputs": [
        {
          "indexed": false,
          "internalType": "address",
          "name": "receiver",
          "type": "address"
        }
      ],
      "name": "FiveKTokenSent",
      "type": "event"
    },
    {
      "anonymous": false,
      "inputs": [
        {
          "indexed": false,
          "internalType": "address",
          "name": "receiver",
          "type": "address"
        }
      ],
      "name": "OneKTokenSent",
      "type": "event"
    },
    {
      "anonymous": false,
      "inputs": [
        {
          "indexed": true,
          "internalType": "address",
          "name": "previousOwner",
          "type": "address"
        },
        {
          "indexed": true,
          "internalType": "address",
          "name": "newOwner",
          "type": "address"
        }
      ],
      "name": "OwnershipTransferred",
      "type": "event"
    },
    {
      "anonymous": false,
      "inputs": [
        {
          "indexed": false,
          "internalType": "address",
          "name": "receiver",
          "type": "address"
        }
      ],
      "name": "TwoKTokenSent",
      "type": "event"
    },
    {
      "inputs": [],
      "name": "faucetName",
      "outputs": [
        {
          "internalType": "string",
          "name": "",
          "type": "string"
        }
      ],
      "stateMutability": "view",
      "type": "function"
    },
    {
      "inputs": [],
      "name": "faucetStatus",
      "outputs": [
        {
          "internalType": "bool",
          "name": "",
          "type": "bool"
        }
      ],
      "stateMutability": "view",
      "type": "function"
    },
    {
      "inputs": [],
      "name": "owner",
      "outputs": [
        {
          "internalType": "address",
          "name": "",
          "type": "address"
        }
      ],
      "stateMutability": "view",
      "type": "function"
    },
    {
      "inputs": [],
      "name": "tokenInstance",
      "outputs": [
        {
          "internalType": "contract VORTokenInterface",
          "name": "",
          "type": "address"
        }
      ],
      "stateMutability": "view",
      "type": "function"
    },
    {
      "inputs": [
        {
          "internalType": "address",
          "name": "newOwner",
          "type": "address"
        }
      ],
      "name": "transferOwnership",
      "outputs": [],
      "stateMutability": "nonpayable",
      "type": "function"
    },
    {
      "inputs": [],
      "name": "drip1Token",
      "outputs": [],
      "stateMutability": "nonpayable",
      "type": "function"
    },
    {
      "inputs": [],
      "name": "drip2Token",
      "outputs": [],
      "stateMutability": "nonpayable",
      "type": "function"
    },
    {
      "inputs": [],
      "name": "drip5Token",
      "outputs": [],
      "stateMutability": "nonpayable",
      "type": "function"
    },
    {
      "inputs": [],
      "name": "turnFaucetOn",
      "outputs": [],
      "stateMutability": "nonpayable",
      "type": "function"
    },
    {
      "inputs": [],
      "name": "turnFaucetOff",
      "outputs": [],
      "stateMutability": "nonpayable",
      "type": "function"
    }
  ],
  "bytecode": "0x608060405234801561001057600080fd5b506040516109a13803806109a18339818101604052604081101561003357600080fd5b81516020830180516040519294929383019291908464010000000082111561005a57600080fd5b90830190602082018581111561006f57600080fd5b825164010000000081118282018810171561008957600080fd5b82525081516020918201929091019080838360005b838110156100b657818101518382015260200161009e565b50505050905090810190601f1680156100e35780820380516001836020036101000a031916815260200191505b50604052505060008054336001600160a01b031991821617909155600280549091166001600160a01b038516179055508051610126906001906020840190610180565b506002805460ff60a01b1916600160a01b90811791829055604080519190920460ff161515815290517fd2a3a2d721c242e2bb5894f541c2a05972d28379a5ae20423a5419a42da3bf639181900360200190a1505061021b565b828054600181600116156101000203166002900490600052602060002090601f016020900481019282601f106101c157805160ff19168380011785556101ee565b828001600101855582156101ee579182015b828111156101ee5782518255916020019190600101906101d3565b506101fa9291506101fe565b5090565b61021891905b808211156101fa5760008155600101610204565b90565b6107778061022a6000396000f3fe608060405234801561001057600080fd5b506004361061009e5760003560e01c8063b412506b11610066578063b412506b14610172578063ee8734d01461017a578063f2fde38b14610182578063f5a7fdcc146101a8578063fadaefff146101b05761009e565b80630dfec796146100a357806340020707146100bf578063658030b31461013c578063832fa91b146101605780638da5cb5b1461016a575b600080fd5b6100ab6101b8565b604080519115158252519081900360200190f35b6100c76101c8565b6040805160208082528351818301528351919283929083019185019080838360005b838110156101015781810151838201526020016100e9565b50505050905090810190601f16801561012e5780820380516001836020036101000a031916815260200191505b509250505060405180910390f35b610144610255565b604080516001600160a01b039092168252519081900360200190f35b610168610264565b005b610144610356565b610168610365565b6101686103e1565b6101686004803603602081101561019857600080fd5b50356001600160a01b0316610463565b6101686104e8565b6101686105da565b600254600160a01b900460ff1681565b60018054604080516020600284861615610100026000190190941693909304601f8101849004840282018401909252818152929183018282801561024d5780601f106102225761010080835404028352916020019161024d565b820191906000526020600020905b81548152906001019060200180831161023057829003601f168201915b505050505081565b6002546001600160a01b031681565b600254600160a01b900460ff1661027a57600080fd5b610283336106cb565b1561028d57600080fd5b6002546040805163a9059cbb60e01b8152336004820152670de0b6b3a7640000602482015290516001600160a01b039092169163a9059cbb916044808201926020929091908290030181600087803b1580156102e857600080fd5b505af11580156102fc573d6000803e3d6000fd5b505050506040513d602081101561031257600080fd5b50610321905033610e10610720565b6040805133815290517fb451b2fb4e1bc44234460580d26a4f71a2693d5c5a72e515b233f2e20235386c9181900360200190a1565b6000546001600160a01b031681565b6000546001600160a01b0316331461037c57600080fd5b600254600160a01b900460ff1661039257600080fd5b6002805460ff60a01b19169081905560408051600160a01b90920460ff1615158252517f1f2881e73120325370afe6da38205f10340d474ae88deced4da5b739ca650bcf9181900360200190a1565b6000546001600160a01b031633146103f857600080fd5b600254600160a01b900460ff161561040f57600080fd5b6002805460ff60a01b1916600160a01b90811791829055604080519190920460ff161515815290517fd2a3a2d721c242e2bb5894f541c2a05972d28379a5ae20423a5419a42da3bf639181900360200190a1565b6000546001600160a01b0316331461047a57600080fd5b6001600160a01b03811661048d57600080fd5b600080546040516001600160a01b03808516939216917f8be0079c531659141344cd1fd0a4f28419497f9722a3daafe3b4186f6b6457e091a3600080546001600160a01b0319166001600160a01b0392909216919091179055565b600254600160a01b900460ff166104fe57600080fd5b610507336106cb565b1561051157600080fd5b6002546040805163a9059cbb60e01b8152336004820152674563918244f40000602482015290516001600160a01b039092169163a9059cbb916044808201926020929091908290030181600087803b15801561056c57600080fd5b505af1158015610580573d6000803e3d6000fd5b505050506040513d602081101561059657600080fd5b506105a5905033614650610720565b6040805133815290517f0cecbc87a45437e3e1904e0a78549073436f9ce37badc9b8619e01328a0999929181900360200190a1565b600254600160a01b900460ff166105f057600080fd5b6105f9336106cb565b1561060357600080fd5b6002546040805163a9059cbb60e01b8152336004820152671bc16d674ec80000602482015290516001600160a01b039092169163a9059cbb916044808201926020929091908290030181600087803b15801561065e57600080fd5b505af1158015610672573d6000803e3d6000fd5b505050506040513d602081101561068857600080fd5b50610697905033611c20610720565b6040805133815290517eaacc7878c456f81effdd03a5982712003474ea96fceb9ded19748a0160a60c9181900360200190a1565b6001600160a01b0381166000908152600360205260408120546106f05750600061071b565b6001600160a01b03821660009081526003602052604090205442106107175750600061071b565b5060015b919050565b6001600160a01b03909116600090815260036020526040902042909101905556fea2646970667358221220ceb10cfa0de65b0c6d787ee33e854b82d0be5472ffe0151859d9fbf5cd84b04a64736f6c63430006060033",
  "immutableReferences": {},
  "source": "pragma solidity 0.6.6;\n\n/**\n * @title Faucet v2.0.0\n * Faucet smart contract for Avocado Network\n * allows users to receive erc20Basic tokens\n * https://github.com/AvocadoNetwork\n * @author Nicolas Frega - <https://github.com/NFhbar>\n */\n\nimport \"./interfaces/VORTokenInterface.sol\";\n\ncontract Ownable {\n    address public owner;\n\n\n    event OwnershipTransferred(address indexed previousOwner, address indexed newOwner);\n\n\n    /**\n     * @dev The Ownable constructor sets the original `owner` of the contract to the sender\n     * account.\n     */\n    constructor() public {\n        owner = msg.sender;\n    }\n\n    /**\n     * @dev Throws if called by any account other than the owner.\n     */\n    modifier onlyOwner() {\n        require(msg.sender == owner);\n        _;\n    }\n\n    /**\n     * @dev Allows the current owner to transfer control of the contract to a newOwner.\n     * @param newOwner The address to transfer ownership to.\n     */\n    function transferOwnership(address newOwner) public onlyOwner {\n        require(newOwner != address(0));\n        emit OwnershipTransferred(owner, newOwner);\n        owner = newOwner;\n    }\n\n}\n\ncontract Faucet is Ownable {\n\n    /*\n    * Events\n    */\n    event Deposit(address indexed sender, uint256 value);\n    event OneKTokenSent(address receiver);\n    event TwoKTokenSent(address receiver);\n    event FiveKTokenSent(address receiver);\n    event FaucetOn(bool status);\n    event FaucetOff(bool status);\n\n    /*\n    * Constants\n    */\n    uint256 constant oneKToken = 1000000000000000000;\n    uint256 constant twoKToken = 2000000000000000000;\n    uint256 constant fiveKToken = 5000000000000000000;\n    uint256 constant oneHours = 1 hours;\n    uint256 constant twoHours = 2 hours;\n    uint256 constant fiveHours = 5 hours;\n\n    /*\n    * Storage\n    */\n    string public faucetName;\n    VORTokenInterface public tokenInstance;\n    bool public faucetStatus;\n    mapping(address => uint256) status;\n\n    /*\n    * Modifiers\n    */\n    modifier faucetOn() {\n        require(faucetStatus);\n        _;\n    }\n\n    modifier faucetOff() {\n        require(!faucetStatus);\n        _;\n    }\n\n    /*\n     * Public functions\n     */\n    /// @dev Contract constructor\n    /// @param _tokenInstance address of ERC20Basic token\n    /// @param _faucetName sets the name for the faucet\n    constructor(address _tokenInstance, string memory _faucetName)\n      public\n    {\n        tokenInstance = VORTokenInterface(_tokenInstance);\n        faucetName = _faucetName;\n        faucetStatus = true;\n\n        emit FaucetOn(faucetStatus);\n    }\n\n    /// @dev send 1000 Token with a minimum time lock of 1 hour\n    function drip1Token()\n      public\n      faucetOn()\n    {\n        if(checkStatus(msg.sender)) {\n            revert();\n        }\n        tokenInstance.transfer(msg.sender, oneKToken);\n        updateStatus(msg.sender, oneHours);\n\n        emit OneKTokenSent(msg.sender);\n    }\n\n    /// @dev send 2000 Token with a minimum time lock of 2 hours\n    function drip2Token()\n      public\n      faucetOn()\n    {\n        if(checkStatus(msg.sender)) {\n            revert();\n        }\n        tokenInstance.transfer(msg.sender, twoKToken);\n        updateStatus(msg.sender, twoHours);\n\n        emit TwoKTokenSent(msg.sender);\n    }\n\n    /// @dev send 5000 Token with a minimum time lock of 5 hours\n    function drip5Token()\n      public\n      faucetOn()\n    {\n        if(checkStatus(msg.sender)) {\n            revert();\n        }\n        tokenInstance.transfer(msg.sender, fiveKToken);\n        updateStatus(msg.sender, fiveHours);\n\n        emit FiveKTokenSent(msg.sender);\n    }\n\n    /// @dev turn faucet on\n    function turnFaucetOn()\n      public\n      onlyOwner\n      faucetOff()\n    {\n        faucetStatus = true;\n\n        emit FaucetOn(faucetStatus);\n    }\n\n    /// @dev turn faucet off\n    function turnFaucetOff()\n      public\n      onlyOwner\n      faucetOn()\n    {\n        faucetStatus = false;\n\n        emit FaucetOff(faucetStatus);\n    }\n\n    /*\n    * Internal functions\n    */\n    /// @dev locks and unlocks account based on time range\n    /// @param _address of msg.sender\n    /// @return bool of current lock status of address\n    function checkStatus(address _address)\n      internal\n      view\n      returns (bool)\n    {\n        //check if first time address is requesting\n        if(status[_address] == 0) {\n            return false;\n        }\n        //if not first time check the timeLock\n        else {\n            // solium-disable-next-line security/no-block-members\n            if(block.timestamp >= status[_address]) {\n                return false;\n            }\n            else {\n                return true;\n            }\n        }\n    }\n\n    /// @dev updates timeLock for account\n    /// @param _address of msg.sender\n    /// @param _timelock of sender address\n    function updateStatus(address _address, uint256 _timelock)\n      internal\n    {   // solium-disable-next-line security/no-block-members\n        status[_address] = block.timestamp + _timelock;\n    }\n\n}",
  "sourcePath": "/Volumes/Untitled/Projects/VOR/VOR-Contracts/contracts/VORFaucet.sol",
  "compiler": {
    "name": "solc",
    "version": "0.6.6+commit.6c089d02.Emscripten.clang"
  },
  "schemaVersion": "3.2.4",
  "updatedAt": "2020-12-16T17:49:17.441Z",
  "devdoc": {
    "methods": {
      "constructor": {
        "details": "Contract constructor",
        "params": {
          "_faucetName": "sets the name for the faucet",
          "_tokenInstance": "address of ERC20Basic token"
        }
      },
      "drip1Token()": {
        "details": "send 1000 Token with a minimum time lock of 1 hour"
      },
      "drip2Token()": {
        "details": "send 2000 Token with a minimum time lock of 2 hours"
      },
      "drip5Token()": {
        "details": "send 5000 Token with a minimum time lock of 5 hours"
      },
      "transferOwnership(address)": {
        "details": "Allows the current owner to transfer control of the contract to a newOwner.",
        "params": {
          "newOwner": "The address to transfer ownership to."
        }
      },
      "turnFaucetOff()": {
        "details": "turn faucet off"
      },
      "turnFaucetOn()": {
        "details": "turn faucet on"
      }
    }
  },
  "userdoc": {
    "methods": {}
  }
}