{
  "contractName": "VRF",
  "abi": [
    {
      "inputs": [],
      "name": "PROOF_LENGTH",
      "outputs": [
        {
          "internalType": "uint256",
          "name": "",
          "type": "uint256"
        }
      ],
      "stateMutability": "view",
      "type": "function"
    }
  ],
  "bytecode": "0x6080604052348015600f57600080fd5b5060818061001e6000396000f3fe6080604052348015600f57600080fd5b506004361060285760003560e01c8063e911439c14602d575b600080fd5b60336045565b60408051918252519081900360200190f35b6101a08156fea264697066735822122098de4841dd039d81f560e5b8f1663536fabf6d5b59307a50f27e818ff5da5c4764736f6c63430006060033",
  "immutableReferences": {},
  "source": "pragma solidity 0.6.6;\n\n/** ****************************************************************************\n  * @notice Verification of verifiable-random-function (VRF) proofs, following\n  * @notice https://datatracker.ietf.org/doc/html/draft-irtf-cfrg-vrf-05#section-5.3\n  * @notice See https://eprint.iacr.org/2017/099.pdf for security proofs.\n  * @dev Bibliographic references:\n  * @dev Goldberg, et al., \"Verifiable Random Functions (VRFs)\", Internet Draft\n  * @dev draft-irtf-cfrg-vrf-05, IETF, Aug 11 2019,\n  * @dev https://datatracker.ietf.org/doc/html/draft-irtf-cfrg-vrf-05\n  * @dev Papadopoulos, et al., \"Making NSEC5 Practical for DNSSEC\", Cryptology\n  * @dev ePrint Archive, Report 2017/099, https://eprint.iacr.org/2017/099.pdf\n  * ****************************************************************************\n  * @dev USAGE\n  * @dev The main entry point is randomValueFromVRFProof. See its docstring.\n  * ****************************************************************************\n  * @dev PURPOSE\n  * @dev Reggie the Random Oracle (not his real job) wants to provide randomness\n  * @dev to Vera the verifier in such a way that Vera can be sure he's not\n  * @dev making his output up to suit himself. Reggie provides Vera a public key\n  * @dev to which he knows the secret key. Each time Vera provides a seed to\n  * @dev Reggie, he gives back a value which is computed completely\n  * @dev deterministically from the seed and the secret key.\n  * @dev Reggie provides a proof by which Vera can verify that the output was\n  * @dev correctly computed once Reggie tells it to her, but without that proof,\n  * @dev the output is computationally indistinguishable to her from a uniform\n  * @dev random sample from the output space.\n  * @dev The purpose of this contract is to perform that verification.\n  * ****************************************************************************\n  * @dev DESIGN NOTES\n  * @dev The VRF algorithm verified here satisfies the full unqiqueness, full\n  * @dev collision resistance, and full pseudorandomness security properties.\n  * @dev See \"SECURITY PROPERTIES\" below, and\n  * @dev https://datatracker.ietf.org/doc/html/draft-irtf-cfrg-vrf-05#section-3\n  * @dev An elliptic curve point is generally represented in the solidity code\n  * @dev as a uint256[2], corresponding to its affine coordinates in\n  * @dev GF(FIELD_SIZE).\n  * @dev For the sake of efficiency, this implementation deviates from the spec\n  * @dev in some minor ways:\n  * @dev - Keccak hash rather than the SHA256 hash recommended in\n  * @dev   https://datatracker.ietf.org/doc/html/draft-irtf-cfrg-vrf-05#section-5.5\n  * @dev   Keccak costs much less gas on the EVM, and provides similar security.\n  * @dev - Secp256k1 curve instead of the P-256 or ED25519 curves recommended in\n  * @dev   https://datatracker.ietf.org/doc/html/draft-irtf-cfrg-vrf-05#section-5.5\n  * @dev   For curve-point multiplication, it's much cheaper to abuse ECRECOVER\n  * @dev - hashToCurve recursively hashes until it finds a curve x-ordinate. On\n  * @dev   the EVM, this is slightly more efficient than the recommendation in\n  * @dev   https://datatracker.ietf.org/doc/html/draft-irtf-cfrg-vrf-05#section-5.4.1.1\n  * @dev   step 5, to concatenate with a nonce then hash, and rehash with the\n  * @dev   nonce updated until a valid x-ordinate is found.\n  * @dev - hashToCurve does not include a cipher version string or the byte 0x1\n  * @dev   in the hash message, as recommended in step 5.B of the draft\n  * @dev   standard. They are unnecessary here because no variation in the\n  * @dev   cipher suite is allowed.\n  * @dev - Similarly, the hash input in scalarFromCurvePoints does not include a\n  * @dev   commitment to the cipher suite, either, which differs from step 2 of\n  * @dev   https://datatracker.ietf.org/doc/html/draft-irtf-cfrg-vrf-05#section-5.4.3\n  * @dev   . Also, the hash input is the concatenation of the uncompressed\n  * @dev   points, not the compressed points as recommended in step 3.\n  * @dev - In the calculation of the challenge value \"c\", the \"u\" value (i.e.\n  * @dev   the value computed by Reggie as the nonce times the secp256k1\n  * @dev   generator point, see steps 5 and 7 of\n  * @dev   https://datatracker.ietf.org/doc/html/draft-irtf-cfrg-vrf-05#section-5.3\n  * @dev   ) is replaced by its ethereum address, i.e. the lower 160 bits of the\n  * @dev   keccak hash of the original u. This is because we only verify the\n  * @dev   calculation of u up to its address, by abusing ECRECOVER.\n  * ****************************************************************************\n  * @dev   SECURITY PROPERTIES\n  * @dev Here are the security properties for this VRF:\n  * @dev Full uniqueness: For any seed and valid VRF public key, there is\n  * @dev   exactly one VRF output which can be proved to come from that seed, in\n  * @dev   the sense that the proof will pass verifyVRFProof.\n  * @dev Full collision resistance: It's cryptographically infeasible to find\n  * @dev   two seeds with same VRF output from a fixed, valid VRF key\n  * @dev Full pseudorandomness: Absent the proofs that the VRF outputs are\n  * @dev   derived from a given seed, the outputs are computationally\n  * @dev   indistinguishable from randomness.\n  * @dev https://eprint.iacr.org/2017/099.pdf, Appendix B contains the proofs\n  * @dev for these properties.\n  * @dev For secp256k1, the key validation described in section\n  * @dev https://datatracker.ietf.org/doc/html/draft-irtf-cfrg-vrf-05#section-5.6\n  * @dev is unnecessary, because secp256k1 has cofactor 1, and the\n  * @dev representation of the public key used here (affine x- and y-ordinates\n  * @dev of the secp256k1 point on the standard y^2=x^3+7 curve) cannot refer to\n  * @dev the point at infinity.\n  * ****************************************************************************\n  * @dev OTHER SECURITY CONSIDERATIONS\n  *\n  * @dev The seed input to the VRF could in principle force an arbitrary amount\n  * @dev of work in hashToCurve, by requiring extra rounds of hashing and\n  * @dev checking whether that's yielded the x ordinate of a secp256k1 point.\n  * @dev However, under the Random Oracle Model the probability of choosing a\n  * @dev point which forces n extra rounds in hashToCurve is 2⁻ⁿ. The base cost\n  * @dev for calling hashToCurve is about 25,000 gas, and each round of checking\n  * @dev for a valid x ordinate costs about 15,555 gas, so to find a seed for\n  * @dev which hashToCurve would cost more than 2,017,000 gas, one would have to\n  * @dev try, in expectation, about 2¹²⁸ seeds, which is infeasible for any\n  * @dev foreseeable computational resources. (25,000 + 128 * 15,555 < 2,017,000.)\n  * @dev Since the gas block limit for the Ethereum main net is 10,000,000 gas,\n  * @dev this means it is infeasible for an adversary to prevent correct\n  * @dev operation of this contract by choosing an adverse seed.\n  * @dev (See TestMeasureHashToCurveGasCost for verification of the gas cost for\n  * @dev hashToCurve.)\n  * @dev It may be possible to make a secure constant-time hashToCurve function.\n  * @dev See notes in hashToCurve docstring.\n*/\ncontract VRF {\n\n  // See https://www.secg.org/sec2-v2.pdf, section 2.4.1, for these constants.\n  uint256 constant private GROUP_ORDER = // Number of points in Secp256k1\n    // solium-disable-next-line indentation\n    0xFFFFFFFFFFFFFFFFFFFFFFFFFFFFFFFEBAAEDCE6AF48A03BBFD25E8CD0364141;\n  // Prime characteristic of the galois field over which Secp256k1 is defined\n  uint256 constant private FIELD_SIZE =\n    // solium-disable-next-line indentation\n    0xFFFFFFFFFFFFFFFFFFFFFFFFFFFFFFFFFFFFFFFFFFFFFFFFFFFFFFFEFFFFFC2F;\n  uint256 constant private WORD_LENGTH_BYTES = 0x20;\n\n  // (base^exponent) % FIELD_SIZE\n  // Cribbed from https://medium.com/@rbkhmrcr/precompiles-solidity-e5d29bd428c4\n  function bigModExp(uint256 base, uint256 exponent)\n    internal view returns (uint256 exponentiation) {\n      uint256 callResult;\n      uint256[6] memory bigModExpContractInputs;\n      bigModExpContractInputs[0] = WORD_LENGTH_BYTES;  // Length of base\n      bigModExpContractInputs[1] = WORD_LENGTH_BYTES;  // Length of exponent\n      bigModExpContractInputs[2] = WORD_LENGTH_BYTES;  // Length of modulus\n      bigModExpContractInputs[3] = base;\n      bigModExpContractInputs[4] = exponent;\n      bigModExpContractInputs[5] = FIELD_SIZE;\n      uint256[1] memory output;\n      assembly { // solhint-disable-line no-inline-assembly\n      callResult := staticcall(\n        not(0),                   // Gas cost: no limit\n        0x05,                     // Bigmodexp contract address\n        bigModExpContractInputs,\n        0xc0,                     // Length of input segment: 6*0x20-bytes\n        output,\n        0x20                      // Length of output segment\n      )\n      }\n      if (callResult == 0) {revert(\"bigModExp failure!\");}\n      return output[0];\n    }\n\n  // Let q=FIELD_SIZE. q % 4 = 3, ∴ x≡r^2 mod q ⇒ x^SQRT_POWER≡±r mod q.  See\n  // https://en.wikipedia.org/wiki/Modular_square_root#Prime_or_prime_power_modulus\n  uint256 constant private SQRT_POWER = (FIELD_SIZE + 1) >> 2;\n\n  // Computes a s.t. a^2 = x in the field. Assumes a exists\n  function squareRoot(uint256 x) internal view returns (uint256) {\n    return bigModExp(x, SQRT_POWER);\n  }\n\n  // The value of y^2 given that (x,y) is on secp256k1.\n  function ySquared(uint256 x) internal pure returns (uint256) {\n    // Curve is y^2=x^3+7. See section 2.4.1 of https://www.secg.org/sec2-v2.pdf\n    uint256 xCubed = mulmod(x, mulmod(x, x, FIELD_SIZE), FIELD_SIZE);\n    return addmod(xCubed, 7, FIELD_SIZE);\n  }\n\n  // True iff p is on secp256k1\n  function isOnCurve(uint256[2] memory p) internal pure returns (bool) {\n    return ySquared(p[0]) == mulmod(p[1], p[1], FIELD_SIZE);\n  }\n\n  // Hash x uniformly into {0, ..., FIELD_SIZE-1}.\n  function fieldHash(bytes memory b) internal pure returns (uint256 x_) {\n    x_ = uint256(keccak256(b));\n    // Rejecting if x >= FIELD_SIZE corresponds to step 2.1 in section 2.3.4 of\n    // http://www.secg.org/sec1-v2.pdf , which is part of the definition of\n    // string_to_point in the IETF draft\n    while (x_ >= FIELD_SIZE) {\n      x_ = uint256(keccak256(abi.encodePacked(x_)));\n    }\n  }\n\n  // Hash b to a random point which hopefully lies on secp256k1. The y ordinate\n  // is always even, due to\n  // https://datatracker.ietf.org/doc/html/draft-irtf-cfrg-vrf-05#section-5.4.1.1\n  // step 5.C, which references arbitrary_string_to_point, defined in\n  // https://datatracker.ietf.org/doc/html/draft-irtf-cfrg-vrf-05#section-5.5 as\n  // returning the point with given x ordinate, and even y ordinate.\n  function newCandidateSecp256k1Point(bytes memory b)\n    internal view returns (uint256[2] memory p) {\n      p[0] = fieldHash(b);\n      p[1] = squareRoot(ySquared(p[0]));\n      if (p[1] % 2 == 1) {\n        p[1] = FIELD_SIZE - p[1];\n      }\n    }\n\n  // Domain-separation tag for initial hash in hashToCurve. Corresponds to\n  // vrf.go/hashToCurveHashPrefix\n  uint256 constant HASH_TO_CURVE_HASH_PREFIX = 1;\n\n  // Cryptographic hash function onto the curve.\n  //\n  // Corresponds to algorithm in section 5.4.1.1 of the draft standard. (But see\n  // DESIGN NOTES above for slight differences.)\n  //\n  // TODO(alx): Implement a bounded-computation hash-to-curve, as described in\n  // \"Construction of Rational Points on Elliptic Curves over Finite Fields\"\n  // http://citeseerx.ist.psu.edu/viewdoc/download?doi=10.1.1.831.5299&rep=rep1&type=pdf\n  // and suggested by\n  // https://datatracker.ietf.org/doc/html/draft-irtf-cfrg-hash-to-curve-01#section-5.2.2\n  // (Though we can't used exactly that because secp256k1's j-invariant is 0.)\n  //\n  // This would greatly simplify the analysis in \"OTHER SECURITY CONSIDERATIONS\"\n  // https://www.pivotaltracker.com/story/show/171120900\n  function hashToCurve(uint256[2] memory pk, uint256 input)\n    internal view returns (uint256[2] memory rv) {\n      rv = newCandidateSecp256k1Point(abi.encodePacked(HASH_TO_CURVE_HASH_PREFIX,\n                                                       pk, input));\n      while (!isOnCurve(rv)) {\n        rv = newCandidateSecp256k1Point(abi.encodePacked(rv[0]));\n      }\n    }\n\n  /** *********************************************************************\n   * @notice Check that product==scalar*multiplicand\n   *\n   * @dev Based on Vitalik Buterin's idea in ethresear.ch post cited below.\n   *\n   * @param multiplicand: secp256k1 point\n   * @param scalar: non-zero GF(GROUP_ORDER) scalar\n   * @param product: secp256k1 expected to be multiplier * multiplicand\n   * @return verifies true iff product==scalar*multiplicand, with cryptographically high probability\n   */\n  function ecmulVerify(uint256[2] memory multiplicand, uint256 scalar,\n    uint256[2] memory product) internal pure returns(bool verifies)\n  {\n    require(scalar != 0); // Rules out an ecrecover failure case\n    uint256 x = multiplicand[0]; // x ordinate of multiplicand\n    uint8 v = multiplicand[1] % 2 == 0 ? 27 : 28; // parity of y ordinate\n    // https://ethresear.ch/t/you-can-kinda-abuse-ecrecover-to-do-ecmul-in-secp256k1-today/2384/9\n    // Point corresponding to address ecrecover(0, v, x, s=scalar*x) is\n    // (x⁻¹ mod GROUP_ORDER) * (scalar * x * multiplicand - 0 * g), i.e.\n    // scalar*multiplicand. See https://crypto.stackexchange.com/a/18106\n    bytes32 scalarTimesX = bytes32(mulmod(scalar, x, GROUP_ORDER));\n    address actual = ecrecover(bytes32(0), v, bytes32(x), scalarTimesX);\n    // Explicit conversion to address takes bottom 160 bits\n    address expected = address(uint256(keccak256(abi.encodePacked(product))));\n    return (actual == expected);\n  }\n\n  // Returns x1/z1-x2/z2=(x1z2-x2z1)/(z1z2) in projective coordinates on P¹(𝔽ₙ)\n  function projectiveSub(uint256 x1, uint256 z1, uint256 x2, uint256 z2)\n    internal pure returns(uint256 x3, uint256 z3) {\n      uint256 num1 = mulmod(z2, x1, FIELD_SIZE);\n      uint256 num2 = mulmod(FIELD_SIZE - x2, z1, FIELD_SIZE);\n      (x3, z3) = (addmod(num1, num2, FIELD_SIZE), mulmod(z1, z2, FIELD_SIZE));\n    }\n\n  // Returns x1/z1*x2/z2=(x1x2)/(z1z2), in projective coordinates on P¹(𝔽ₙ)\n  function projectiveMul(uint256 x1, uint256 z1, uint256 x2, uint256 z2)\n    internal pure returns(uint256 x3, uint256 z3) {\n      (x3, z3) = (mulmod(x1, x2, FIELD_SIZE), mulmod(z1, z2, FIELD_SIZE));\n    }\n\n  /** **************************************************************************\n      @notice Computes elliptic-curve sum, in projective co-ordinates\n      @dev Using projective coordinates avoids costly divisions\n      @dev To use this with p and q in affine coordinates, call\n      @dev projectiveECAdd(px, py, qx, qy). This will return\n      @dev the addition of (px, py, 1) and (qx, qy, 1), in the\n      @dev secp256k1 group.\n      @dev This can be used to calculate the z which is the inverse to zInv\n      @dev in isValidVRFOutput. But consider using a faster\n      @dev re-implementation such as ProjectiveECAdd in the golang vrf package.\n      @dev This function assumes [px,py,1],[qx,qy,1] are valid projective\n           coordinates of secp256k1 points. That is safe in this contract,\n           because this method is only used by linearCombination, which checks\n           points are on the curve via ecrecover.\n      **************************************************************************\n      @param px The first affine coordinate of the first summand\n      @param py The second affine coordinate of the first summand\n      @param qx The first affine coordinate of the second summand\n      @param qy The second affine coordinate of the second summand\n      (px,py) and (qx,qy) must be distinct, valid secp256k1 points.\n      **************************************************************************\n      Return values are projective coordinates of [px,py,1]+[qx,qy,1] as points\n      on secp256k1, in P²(𝔽ₙ)\n      @return sx \n      @return sy\n      @return sz\n  */\n  function projectiveECAdd(uint256 px, uint256 py, uint256 qx, uint256 qy)\n    internal pure returns(uint256 sx, uint256 sy, uint256 sz) {\n      // See \"Group law for E/K : y^2 = x^3 + ax + b\", in section 3.1.2, p. 80,\n      // \"Guide to Elliptic Curve Cryptography\" by Hankerson, Menezes and Vanstone\n      // We take the equations there for (sx,sy), and homogenize them to\n      // projective coordinates. That way, no inverses are required, here, and we\n      // only need the one inverse in affineECAdd.\n\n      // We only need the \"point addition\" equations from Hankerson et al. Can\n      // skip the \"point doubling\" equations because p1 == p2 is cryptographically\n      // impossible, and require'd not to be the case in linearCombination.\n\n      // Add extra \"projective coordinate\" to the two points\n      (uint256 z1, uint256 z2) = (1, 1);\n\n      // (lx, lz) = (qy-py)/(qx-px), i.e., gradient of secant line.\n      uint256 lx = addmod(qy, FIELD_SIZE - py, FIELD_SIZE);\n      uint256 lz = addmod(qx, FIELD_SIZE - px, FIELD_SIZE);\n\n      uint256 dx; // Accumulates denominator from sx calculation\n      // sx=((qy-py)/(qx-px))^2-px-qx\n      (sx, dx) = projectiveMul(lx, lz, lx, lz); // ((qy-py)/(qx-px))^2\n      (sx, dx) = projectiveSub(sx, dx, px, z1); // ((qy-py)/(qx-px))^2-px\n      (sx, dx) = projectiveSub(sx, dx, qx, z2); // ((qy-py)/(qx-px))^2-px-qx\n\n      uint256 dy; // Accumulates denominator from sy calculation\n      // sy=((qy-py)/(qx-px))(px-sx)-py\n      (sy, dy) = projectiveSub(px, z1, sx, dx); // px-sx\n      (sy, dy) = projectiveMul(sy, dy, lx, lz); // ((qy-py)/(qx-px))(px-sx)\n      (sy, dy) = projectiveSub(sy, dy, py, z1); // ((qy-py)/(qx-px))(px-sx)-py\n\n      if (dx != dy) { // Cross-multiply to put everything over a common denominator\n        sx = mulmod(sx, dy, FIELD_SIZE);\n        sy = mulmod(sy, dx, FIELD_SIZE);\n        sz = mulmod(dx, dy, FIELD_SIZE);\n      } else { // Already over a common denominator, use that for z ordinate\n        sz = dx;\n      }\n    }\n\n  // p1+p2, as affine points on secp256k1.\n  //\n  // invZ must be the inverse of the z returned by projectiveECAdd(p1, p2).\n  // It is computed off-chain to save gas.\n  //\n  // p1 and p2 must be distinct, because projectiveECAdd doesn't handle\n  // point doubling.\n  function affineECAdd(\n    uint256[2] memory p1, uint256[2] memory p2,\n    uint256 invZ) internal pure returns (uint256[2] memory) {\n    uint256 x;\n    uint256 y;\n    uint256 z;\n    (x, y, z) = projectiveECAdd(p1[0], p1[1], p2[0], p2[1]);\n    require(mulmod(z, invZ, FIELD_SIZE) == 1, \"invZ must be inverse of z\");\n    // Clear the z ordinate of the projective representation by dividing through\n    // by it, to obtain the affine representation\n    return [mulmod(x, invZ, FIELD_SIZE), mulmod(y, invZ, FIELD_SIZE)];\n  }\n\n  // True iff address(c*p+s*g) == lcWitness, where g is generator. (With\n  // cryptographically high probability.)\n  function verifyLinearCombinationWithGenerator(\n    uint256 c, uint256[2] memory p, uint256 s, address lcWitness)\n    internal pure returns (bool) {\n      // Rule out ecrecover failure modes which return address 0.\n      require(lcWitness != address(0), \"bad witness\");\n      uint8 v = (p[1] % 2 == 0) ? 27 : 28; // parity of y-ordinate of p\n      bytes32 pseudoHash = bytes32(GROUP_ORDER - mulmod(p[0], s, GROUP_ORDER)); // -s*p[0]\n      bytes32 pseudoSignature = bytes32(mulmod(c, p[0], GROUP_ORDER)); // c*p[0]\n      // https://ethresear.ch/t/you-can-kinda-abuse-ecrecover-to-do-ecmul-in-secp256k1-today/2384/9\n      // The point corresponding to the address returned by\n      // ecrecover(-s*p[0],v,p[0],c*p[0]) is\n      // (p[0]⁻¹ mod GROUP_ORDER)*(c*p[0]-(-s)*p[0]*g)=c*p+s*g.\n      // See https://crypto.stackexchange.com/a/18106\n      // https://bitcoin.stackexchange.com/questions/38351/ecdsa-v-r-s-what-is-v\n      address computed = ecrecover(pseudoHash, v, bytes32(p[0]), pseudoSignature);\n      return computed == lcWitness;\n    }\n\n  // c*p1 + s*p2. Requires cp1Witness=c*p1 and sp2Witness=s*p2. Also\n  // requires cp1Witness != sp2Witness (which is fine for this application,\n  // since it is cryptographically impossible for them to be equal. In the\n  // (cryptographically impossible) case that a prover accidentally derives\n  // a proof with equal c*p1 and s*p2, they should retry with a different\n  // proof nonce.) Assumes that all points are on secp256k1\n  // (which is checked in verifyVRFProof below.)\n  function linearCombination(\n    uint256 c, uint256[2] memory p1, uint256[2] memory cp1Witness,\n    uint256 s, uint256[2] memory p2, uint256[2] memory sp2Witness,\n    uint256 zInv)\n    internal pure returns (uint256[2] memory) {\n      require((cp1Witness[0] - sp2Witness[0]) % FIELD_SIZE != 0,\n              \"points in sum must be distinct\");\n      require(ecmulVerify(p1, c, cp1Witness), \"First multiplication check failed\");\n      require(ecmulVerify(p2, s, sp2Witness), \"Second multiplication check failed\");\n      return affineECAdd(cp1Witness, sp2Witness, zInv);\n    }\n\n  // Domain-separation tag for the hash taken in scalarFromCurvePoints.\n  // Corresponds to scalarFromCurveHashPrefix in vrf.go\n  uint256 constant SCALAR_FROM_CURVE_POINTS_HASH_PREFIX = 2;\n\n  // Pseudo-random number from inputs. Matches vrf.go/scalarFromCurvePoints, and\n  // https://datatracker.ietf.org/doc/html/draft-irtf-cfrg-vrf-05#section-5.4.3\n  // The draft calls (in step 7, via the definition of string_to_int, in\n  // https://datatracker.ietf.org/doc/html/rfc8017#section-4.2 ) for taking the\n  // first hash without checking that it corresponds to a number less than the\n  // group order, which will lead to a slight bias in the sample.\n  //\n  // TODO(alx): We could save a bit of gas by following the standard here and\n  // using the compressed representation of the points, if we collated the y\n  // parities into a single bytes32.\n  // https://www.pivotaltracker.com/story/show/171120588\n  function scalarFromCurvePoints(\n    uint256[2] memory hash, uint256[2] memory pk, uint256[2] memory gamma,\n    address uWitness, uint256[2] memory v)\n    internal pure returns (uint256 s) {\n      return uint256(\n        keccak256(abi.encodePacked(SCALAR_FROM_CURVE_POINTS_HASH_PREFIX,\n                                   hash, pk, gamma, v, uWitness)));\n    }\n\n  // True if (gamma, c, s) is a correctly constructed randomness proof from pk\n  // and seed. zInv must be the inverse of the third ordinate from\n  // projectiveECAdd applied to cGammaWitness and sHashWitness. Corresponds to\n  // section 5.3 of the IETF draft.\n  //\n  // TODO(alx): Since I'm only using pk in the ecrecover call, I could only pass\n  // the x ordinate, and the parity of the y ordinate in the top bit of uWitness\n  // (which I could make a uint256 without using any extra space.) Would save\n  // about 2000 gas. https://www.pivotaltracker.com/story/show/170828567\n  function verifyVRFProof(\n    uint256[2] memory pk, uint256[2] memory gamma, uint256 c, uint256 s,\n    uint256 seed, address uWitness, uint256[2] memory cGammaWitness,\n    uint256[2] memory sHashWitness, uint256 zInv)\n    internal view {\n      require(isOnCurve(pk), \"public key is not on curve\");\n      require(isOnCurve(gamma), \"gamma is not on curve\");\n      require(isOnCurve(cGammaWitness), \"cGammaWitness is not on curve\");\n      require(isOnCurve(sHashWitness), \"sHashWitness is not on curve\");\n      // Step 5. of IETF draft section 5.3 (pk corresponds to 5.3's Y, and here\n      // we use the address of u instead of u itself. Also, here we add the\n      // terms instead of taking the difference, and in the proof consruction in\n      // vrf.GenerateProof, we correspondingly take the difference instead of\n      // taking the sum as they do in step 7 of section 5.1.)\n      require(\n        verifyLinearCombinationWithGenerator(c, pk, s, uWitness),\n        \"addr(c*pk+s*g)≠_uWitness\"\n      );\n      // Step 4. of IETF draft section 5.3 (pk corresponds to Y, seed to alpha_string)\n      uint256[2] memory hash = hashToCurve(pk, seed);\n      // Step 6. of IETF draft section 5.3, but see note for step 5 about +/- terms\n      uint256[2] memory v = linearCombination(\n        c, gamma, cGammaWitness, s, hash, sHashWitness, zInv);\n      // Steps 7. and 8. of IETF draft section 5.3\n      uint256 derivedC = scalarFromCurvePoints(hash, pk, gamma, uWitness, v);\n      require(c == derivedC, \"invalid proof\");\n    }\n\n  // Domain-separation tag for the hash used as the final VRF output.\n  // Corresponds to vrfRandomOutputHashPrefix in vrf.go\n  uint256 constant VRF_RANDOM_OUTPUT_HASH_PREFIX = 3;\n\n  // Length of proof marshaled to bytes array. Shows layout of proof\n  uint public constant PROOF_LENGTH = 64 + // PublicKey (uncompressed format.)\n    64 + // Gamma\n    32 + // C\n    32 + // S\n    32 + // Seed\n    0 + // Dummy entry: The following elements are included for gas efficiency:\n    32 + // uWitness (gets padded to 256 bits, even though it's only 160)\n    64 + // cGammaWitness\n    64 + // sHashWitness\n    32; // zInv  (Leave Output out, because that can be efficiently calculated)\n\n  /* ***************************************************************************\n   * @notice Returns proof's output, if proof is valid. Otherwise reverts\n   * @param proof A binary-encoded proof, as output by vrf.Proof.MarshalForSolidityVerifier\n   *\n   * Throws if proof is invalid, otherwise:\n   * @return output i.e., the random output implied by the proof\n   * ***************************************************************************\n   * @dev See the calculation of PROOF_LENGTH for the binary layout of proof.\n   */\n  function randomValueFromVRFProof(bytes memory proof)\n    internal view returns (uint256 output) {\n      require(proof.length == PROOF_LENGTH, \"wrong proof length\");\n\n      uint256[2] memory pk; // parse proof contents into these variables\n      uint256[2] memory gamma;\n      // c, s and seed combined (prevents \"stack too deep\" compilation error)\n      uint256[3] memory cSSeed;\n      address uWitness;\n      uint256[2] memory cGammaWitness;\n      uint256[2] memory sHashWitness;\n      uint256 zInv;\n      (pk, gamma, cSSeed, uWitness, cGammaWitness, sHashWitness, zInv) = abi.decode(\n        proof, (uint256[2], uint256[2], uint256[3], address, uint256[2],\n                uint256[2], uint256));\n      verifyVRFProof(\n        pk,\n        gamma,\n        cSSeed[0], // c\n        cSSeed[1], // s\n        cSSeed[2], // seed\n        uWitness,\n        cGammaWitness,\n        sHashWitness,\n        zInv\n      );\n      output = uint256(keccak256(abi.encode(VRF_RANDOM_OUTPUT_HASH_PREFIX, gamma)));\n    }\n}\n",
  "sourcePath": "/Volumes/Untitled/Projects/VOR/VOR-Contracts/contracts/VRF.sol",
  "compiler": {
    "name": "solc",
    "version": "0.6.6+commit.6c089d02.Emscripten.clang"
  },
  "schemaVersion": "3.2.4",
  "updatedAt": "2020-12-07T00:40:49.272Z",
  "devdoc": {
    "details": "Bibliographic references:Goldberg, et al., \"Verifiable Random Functions (VRFs)\", Internet Draftdraft-irtf-cfrg-vrf-05, IETF, Aug 11 2019,https://datatracker.ietf.org/doc/html/draft-irtf-cfrg-vrf-05Papadopoulos, et al., \"Making NSEC5 Practical for DNSSEC\", CryptologyePrint Archive, Report 2017/099, https://eprint.iacr.org/2017/099.pdf ****************************************************************************USAGEThe main entry point is randomValueFromVRFProof. See its docstring. ****************************************************************************PURPOSEReggie the Random Oracle (not his real job) wants to provide randomnessto Vera the verifier in such a way that Vera can be sure he's notmaking his output up to suit himself. Reggie provides Vera a public keyto which he knows the secret key. Each time Vera provides a seed toReggie, he gives back a value which is computed completelydeterministically from the seed and the secret key.Reggie provides a proof by which Vera can verify that the output wascorrectly computed once Reggie tells it to her, but without that proof,the output is computationally indistinguishable to her from a uniformrandom sample from the output space.The purpose of this contract is to perform that verification. ****************************************************************************DESIGN NOTESThe VRF algorithm verified here satisfies the full unqiqueness, fullcollision resistance, and full pseudorandomness security properties.See \"SECURITY PROPERTIES\" below, andhttps://datatracker.ietf.org/doc/html/draft-irtf-cfrg-vrf-05#section-3An elliptic curve point is generally represented in the solidity codeas a uint256[2], corresponding to its affine coordinates inGF(FIELD_SIZE).For the sake of efficiency, this implementation deviates from the specin some minor ways:- Keccak hash rather than the SHA256 hash recommended inhttps://datatracker.ietf.org/doc/html/draft-irtf-cfrg-vrf-05#section-5.5Keccak costs much less gas on the EVM, and provides similar security.- Secp256k1 curve instead of the P-256 or ED25519 curves recommended inhttps://datatracker.ietf.org/doc/html/draft-irtf-cfrg-vrf-05#section-5.5For curve-point multiplication, it's much cheaper to abuse ECRECOVER- hashToCurve recursively hashes until it finds a curve x-ordinate. Onthe EVM, this is slightly more efficient than the recommendation inhttps://datatracker.ietf.org/doc/html/draft-irtf-cfrg-vrf-05#section-5.4.1.1step 5, to concatenate with a nonce then hash, and rehash with thenonce updated until a valid x-ordinate is found.- hashToCurve does not include a cipher version string or the byte 0x1in the hash message, as recommended in step 5.B of the draftstandard. They are unnecessary here because no variation in thecipher suite is allowed.- Similarly, the hash input in scalarFromCurvePoints does not include acommitment to the cipher suite, either, which differs from step 2 ofhttps://datatracker.ietf.org/doc/html/draft-irtf-cfrg-vrf-05#section-5.4.3. Also, the hash input is the concatenation of the uncompressedpoints, not the compressed points as recommended in step 3.- In the calculation of the challenge value \"c\", the \"u\" value (i.e.the value computed by Reggie as the nonce times the secp256k1generator point, see steps 5 and 7 ofhttps://datatracker.ietf.org/doc/html/draft-irtf-cfrg-vrf-05#section-5.3) is replaced by its ethereum address, i.e. the lower 160 bits of thekeccak hash of the original u. This is because we only verify thecalculation of u up to its address, by abusing ECRECOVER. ****************************************************************************SECURITY PROPERTIESHere are the security properties for this VRF:Full uniqueness: For any seed and valid VRF public key, there isexactly one VRF output which can be proved to come from that seed, inthe sense that the proof will pass verifyVRFProof.Full collision resistance: It's cryptographically infeasible to findtwo seeds with same VRF output from a fixed, valid VRF keyFull pseudorandomness: Absent the proofs that the VRF outputs arederived from a given seed, the outputs are computationallyindistinguishable from randomness.https://eprint.iacr.org/2017/099.pdf, Appendix B contains the proofsfor these properties.For secp256k1, the key validation described in sectionhttps://datatracker.ietf.org/doc/html/draft-irtf-cfrg-vrf-05#section-5.6is unnecessary, because secp256k1 has cofactor 1, and therepresentation of the public key used here (affine x- and y-ordinatesof the secp256k1 point on the standard y^2=x^3+7 curve) cannot refer tothe point at infinity. ****************************************************************************OTHER SECURITY CONSIDERATIONSThe seed input to the VRF could in principle force an arbitrary amountof work in hashToCurve, by requiring extra rounds of hashing andchecking whether that's yielded the x ordinate of a secp256k1 point.However, under the Random Oracle Model the probability of choosing apoint which forces n extra rounds in hashToCurve is 2⁻ⁿ. The base costfor calling hashToCurve is about 25,000 gas, and each round of checkingfor a valid x ordinate costs about 15,555 gas, so to find a seed forwhich hashToCurve would cost more than 2,017,000 gas, one would have totry, in expectation, about 2¹²⁸ seeds, which is infeasible for anyforeseeable computational resources. (25,000 + 128 * 15,555 < 2,017,000.)Since the gas block limit for the Ethereum main net is 10,000,000 gas,this means it is infeasible for an adversary to prevent correctoperation of this contract by choosing an adverse seed.(See TestMeasureHashToCurveGasCost for verification of the gas cost forhashToCurve.)It may be possible to make a secure constant-time hashToCurve function.See notes in hashToCurve docstring.",
    "methods": {}
  },
  "userdoc": {
    "methods": {},
    "notice": "****************************************************************************Verification of verifiable-random-function (VRF) proofs, followinghttps://datatracker.ietf.org/doc/html/draft-irtf-cfrg-vrf-05#section-5.3See https://eprint.iacr.org/2017/099.pdf for security proofs."
  }
}