{
  "contractName": "VRFCoordinator",
  "abi": [
    {
      "inputs": [
        {
          "internalType": "address",
          "name": "_token",
          "type": "address"
        },
        {
          "internalType": "address",
          "name": "_blockHashStore",
          "type": "address"
        }
      ],
      "stateMutability": "nonpayable",
      "type": "constructor"
    },
    {
      "anonymous": false,
      "inputs": [
        {
          "indexed": false,
          "internalType": "bytes32",
          "name": "keyHash",
          "type": "bytes32"
        },
        {
          "indexed": false,
          "internalType": "uint256",
          "name": "fee",
          "type": "uint256"
        }
      ],
      "name": "NewServiceAgreement",
      "type": "event"
    },
    {
      "anonymous": false,
      "inputs": [
        {
          "indexed": false,
          "internalType": "bytes32",
          "name": "keyHash",
          "type": "bytes32"
        },
        {
          "indexed": false,
          "internalType": "uint256",
          "name": "seed",
          "type": "uint256"
        },
        {
          "indexed": true,
          "internalType": "bytes32",
          "name": "jobID",
          "type": "bytes32"
        },
        {
          "indexed": false,
          "internalType": "address",
          "name": "sender",
          "type": "address"
        },
        {
          "indexed": false,
          "internalType": "uint256",
          "name": "fee",
          "type": "uint256"
        },
        {
          "indexed": false,
          "internalType": "bytes32",
          "name": "requestID",
          "type": "bytes32"
        }
      ],
      "name": "RandomnessRequest",
      "type": "event"
    },
    {
      "anonymous": false,
      "inputs": [
        {
          "indexed": false,
          "internalType": "bytes32",
          "name": "requestId",
          "type": "bytes32"
        },
        {
          "indexed": false,
          "internalType": "uint256",
          "name": "output",
          "type": "uint256"
        }
      ],
      "name": "RandomnessRequestFulfilled",
      "type": "event"
    },
    {
      "inputs": [],
      "name": "PRESEED_OFFSET",
      "outputs": [
        {
          "internalType": "uint256",
          "name": "",
          "type": "uint256"
        }
      ],
      "stateMutability": "view",
      "type": "function",
      "constant": true
    },
    {
      "inputs": [],
      "name": "PROOF_LENGTH",
      "outputs": [
        {
          "internalType": "uint256",
          "name": "",
          "type": "uint256"
        }
      ],
      "stateMutability": "view",
      "type": "function",
      "constant": true
    },
    {
      "inputs": [],
      "name": "PUBLIC_KEY_OFFSET",
      "outputs": [
        {
          "internalType": "uint256",
          "name": "",
          "type": "uint256"
        }
      ],
      "stateMutability": "view",
      "type": "function",
      "constant": true
    },
    {
      "inputs": [
        {
          "internalType": "bytes32",
          "name": "",
          "type": "bytes32"
        }
      ],
      "name": "callbacks",
      "outputs": [
        {
          "internalType": "address",
          "name": "callbackContract",
          "type": "address"
        },
        {
          "internalType": "uint96",
          "name": "randomnessFee",
          "type": "uint96"
        },
        {
          "internalType": "bytes32",
          "name": "seedAndBlockNum",
          "type": "bytes32"
        }
      ],
      "stateMutability": "view",
      "type": "function",
      "constant": true
    },
    {
      "inputs": [
        {
          "internalType": "bytes32",
          "name": "",
          "type": "bytes32"
        }
      ],
      "name": "serviceAgreements",
      "outputs": [
        {
          "internalType": "address",
          "name": "vRFOracle",
          "type": "address"
        },
        {
          "internalType": "uint96",
          "name": "fee",
          "type": "uint96"
        },
        {
          "internalType": "bytes32",
          "name": "jobID",
          "type": "bytes32"
        }
      ],
      "stateMutability": "view",
      "type": "function",
      "constant": true
    },
    {
      "inputs": [
        {
          "internalType": "address",
          "name": "",
          "type": "address"
        }
      ],
      "name": "withdrawableTokens",
      "outputs": [
        {
          "internalType": "uint256",
          "name": "",
          "type": "uint256"
        }
      ],
      "stateMutability": "view",
      "type": "function",
      "constant": true
    },
    {
      "inputs": [
        {
          "internalType": "uint256",
          "name": "_fee",
          "type": "uint256"
        },
        {
          "internalType": "address",
          "name": "_oracle",
          "type": "address"
        },
        {
          "internalType": "uint256[2]",
          "name": "_publicProvingKey",
          "type": "uint256[2]"
        },
        {
          "internalType": "bytes32",
          "name": "_jobID",
          "type": "bytes32"
        }
      ],
      "name": "registerProvingKey",
      "outputs": [],
      "stateMutability": "nonpayable",
      "type": "function"
    },
    {
      "inputs": [
        {
          "internalType": "address",
          "name": "_sender",
          "type": "address"
        },
        {
          "internalType": "uint256",
          "name": "_fee",
          "type": "uint256"
        },
        {
          "internalType": "bytes",
          "name": "_data",
          "type": "bytes"
        }
      ],
      "name": "onTokenTransfer",
      "outputs": [],
      "stateMutability": "nonpayable",
      "type": "function"
    },
    {
      "inputs": [
        {
          "internalType": "bytes",
          "name": "_proof",
          "type": "bytes"
        }
      ],
      "name": "fulfillRandomnessRequest",
      "outputs": [],
      "stateMutability": "nonpayable",
      "type": "function"
    },
    {
      "inputs": [
        {
          "internalType": "address",
          "name": "_recipient",
          "type": "address"
        },
        {
          "internalType": "uint256",
          "name": "_amount",
          "type": "uint256"
        }
      ],
      "name": "withdraw",
      "outputs": [],
      "stateMutability": "nonpayable",
      "type": "function"
    },
    {
      "inputs": [
        {
          "internalType": "uint256[2]",
          "name": "_publicKey",
          "type": "uint256[2]"
        }
      ],
      "name": "hashOfKey",
      "outputs": [
        {
          "internalType": "bytes32",
          "name": "",
          "type": "bytes32"
        }
      ],
      "stateMutability": "pure",
      "type": "function",
      "constant": true
    }
  ],
  "bytecode": "0x608060405234801561001057600080fd5b50604051611e3c380380611e3c8339818101604052604081101561003357600080fd5b508051602090910151600080546001600160a01b039384166001600160a01b03199182161790915560018054939092169216919091179055611dc28061007a6000396000f3fe608060405234801561001057600080fd5b50600436106100a85760003560e01c8063a4c0ed3611610071578063a4c0ed36146101ff578063b415f4f5146102ba578063caf70c4a146102c2578063d83402091461030d578063e911439c14610344578063f3fef3a31461034c576100a8565b80626f6ad0146100ad57806321f36509146100e55780635e1c10591461013257806375d35070146101da5780638aa7927b146101f7575b600080fd5b6100d3600480360360208110156100c357600080fd5b50356001600160a01b0316610378565b60408051918252519081900360200190f35b610102600480360360208110156100fb57600080fd5b503561038a565b604080516001600160a01b0390941684526001600160601b03909216602084015282820152519081900360600190f35b6101d86004803603602081101561014857600080fd5b81019060208101813564010000000081111561016357600080fd5b82018360208201111561017557600080fd5b8035906020019184600183028401116401000000008311171561019757600080fd5b91908080601f0160208091040260200160405190810160405280939291908181526020018383808284376000920191909152509295506103bf945050505050565b005b610102600480360360208110156101f057600080fd5b50356104a8565b6100d36104dd565b6101d86004803603606081101561021557600080fd5b6001600160a01b038235169160208101359181019060608101604082013564010000000081111561024557600080fd5b82018360208201111561025757600080fd5b8035906020019184600183028401116401000000008311171561027957600080fd5b91908080601f0160208091040260200160405190810160405280939291908181526020018383808284376000920191909152509295506104e2945050505050565b6100d361056f565b6100d3600480360360408110156102d857600080fd5b604080518082018252918301929181830191839060029083908390808284376000920191909152509194506105749350505050565b6101d8600480360360a081101561032357600080fd5b508035906001600160a01b03602082013516906040810190608001356105ca565b6100d36107aa565b6101d86004803603604081101561036257600080fd5b506001600160a01b0381351690602001356107b0565b60046020526000908152604090205481565b600260205260009081526040902080546001909101546001600160a01b03821691600160a01b90046001600160601b03169083565b60006103c9611c76565b6000806103d5856108d2565b600084815260036020908152604080832054828701516001600160a01b03909116808552600490935292205495995093975091955093509091610426916001600160601b031663ffffffff610b9616565b6001600160a01b038216600090815260046020908152604080832093909355858252600290529081208181556001015583516104659084908490610bf9565b604080518481526020810184905281517fa2e7a402243ebda4a69ceeb3dfb682943b7a9b3ac66d6eefa8db65894009611c929181900390910190a1505050505050565b600360205260009081526040902080546001909101546001600160a01b03821691600160a01b90046001600160601b03169083565b602081565b6000546001600160a01b03163314610536576040805162461bcd60e51b815260206004820152601260248201527126bab9ba103ab9b2902b2923103a37b5b2b760711b604482015290519081900360640190fd5b60008082806020019051604081101561054e57600080fd5b508051602090910151909250905061056882828688610d43565b5050505050565b60e081565b6000816040516020018082600260200280838360005b838110156105a257818101518382015260200161058a565b505050509050019150506040516020818303038152906040528051906020012090505b919050565b6040805180820182526000916105f9919085906002908390839080828437600092019190915250610574915050565b6000818152600360205260409020549091506001600160a01b03168015610667576040805162461bcd60e51b815260206004820152601960248201527f706c656173652072656769737465722061206e6577206b657900000000000000604482015290519081900360640190fd5b6001600160a01b0385166106c2576040805162461bcd60e51b815260206004820152601760248201527f5f6f7261636c65206d757374206e6f7420626520307830000000000000000000604482015290519081900360640190fd5b600082815260036020526040902080546001600160a01b0319166001600160a01b0387161781556001018390556b033b2e3c9fd0803ce800000086111561073a5760405162461bcd60e51b815260040180806020018281038252603b815260200180611d52603b913960400191505060405180910390fd5b60008281526003602090815260409182902080546001600160a01b0316600160a01b6001600160601b038b1602179055815184815290810188905281517fae189157e0628c1e62315e9179156e1ea10e90e9c15060002f7021e907dc2cfe929181900390910190a1505050505050565b6101a081565b336000908152600460205260409020548190811115610816576040805162461bcd60e51b815260206004820181905260248201527f63616e2774207769746864726177206d6f7265207468616e2062616c616e6365604482015290519081900360640190fd5b33600090815260046020526040902054610836908363ffffffff610f6f16565b336000908152600460208181526040808420949094558254845163a9059cbb60e01b81526001600160a01b038981169482019490945260248101889052945192169363a9059cbb93604480830194928390030190829087803b15801561089b57600080fd5b505af11580156108af573d6000803e3d6000fd5b505050506040513d60208110156108c557600080fd5b50516108cd57fe5b505050565b60006108dc611c76565b825160009081906101c090811461092f576040805162461bcd60e51b81526020600482015260126024820152710eee4dedcce40e0e4dedecc40d8cadccee8d60731b604482015290519081900360640190fd5b610937611c96565b5060e08601518187015160208801919061095083610574565b975061095c8883610fcc565b600081815260026020908152604091829020825160608101845281546001600160a01b038116808352600160a01b9091046001600160601b03169382019390935260019091015492810192909252909850909650610a01576040805162461bcd60e51b815260206004820152601860248201527f6e6f20636f72726573706f6e64696e6720726571756573740000000000000000604482015290519081900360640190fd5b6040805160208082018590528183018490528251808303840181526060909201835281519101209088015114610a7e576040805162461bcd60e51b815260206004820152601a60248201527f77726f6e672070726553656564206f7220626c6f636b206e756d000000000000604482015290519081900360640190fd5b804080610b4a5760015460408051631d2827a760e31b81526004810185905290516001600160a01b039092169163e9413d3891602480820192602092909190829003018186803b158015610ad157600080fd5b505afa158015610ae5573d6000803e3d6000fd5b505050506040513d6020811015610afb57600080fd5b5051905080610b4a576040805162461bcd60e51b81526020600482015260166024820152750e0d8cac2e6ca40e0e4deecca40c4d8dec6d6d0c2e6d60531b604482015290519081900360640190fd5b6040805160208082018690528183018490528251808303840181526060909201909252805191012060e08b018190526101a08b52610b878b610ff8565b96505050505050509193509193565b600082820183811015610bf0576040805162461bcd60e51b815260206004820152601b60248201527f536166654d6174683a206164646974696f6e206f766572666c6f770000000000604482015290519081900360640190fd5b90505b92915050565b604080516024810185905260448082018590528251808303909101815260649091019091526020810180516001600160e01b03166394985ddd60e01b179052600090620324b0805a1015610c94576040805162461bcd60e51b815260206004820152601b60248201527f6e6f7420656e6f7567682067617320666f7220636f6e73756d65720000000000604482015290519081900360640190fd5b6000846001600160a01b0316836040518082805190602001908083835b60208310610cd05780518252601f199092019160209182019101610cb1565b6001836020036101000a0380198251168184511680821785525050505050509050019150506000604051808303816000865af19150503d8060008114610d32576040519150601f19603f3d011682016040523d82523d6000602084013e610d37565b606091505b50505050505050505050565b60008481526003602052604090205482908590600160a01b90046001600160601b0316821015610db1576040805162461bcd60e51b815260206004820152601460248201527310995b1bddc81859dc995959081c185e5b595b9d60621b604482015290519081900360640190fd5b60008681526005602090815260408083206001600160a01b038716845290915281205490610de188888785611141565b90506000610def8983610fcc565b6000818152600260205260409020549091506001600160a01b031615610e1157fe5b600081815260026020526040902080546001600160a01b0319166001600160a01b0388161790556b033b2e3c9fd0803ce80000008710610e4d57fe5b600081815260026020908152604080832080546001600160601b038c16600160a01b026001600160a01b0391821617825582518085018890524381850152835180820385018152606082018086528151918701919091206001948501558f875260039095529483902090910154928d905260808401869052891660a084015260c083018a905260e083018490525190917f56bd374744a66d531874338def36c906e3a6cf31176eb1e9afd9f1de69725d5191908190036101000190a260008981526005602090815260408083206001600160a01b038a168452909152902054610f3d90600163ffffffff610b9616565b6000998a52600560209081526040808c206001600160a01b039099168c52979052959098209490945550505050505050565b600082821115610fc6576040805162461bcd60e51b815260206004820152601e60248201527f536166654d6174683a207375627472616374696f6e206f766572666c6f770000604482015290519081900360640190fd5b50900390565b604080516020808201949094528082019290925280518083038201815260609092019052805191012090565b60006101a0825114611046576040805162461bcd60e51b81526020600482015260126024820152710eee4dedcce40e0e4dedecc40d8cadccee8d60731b604482015290519081900360640190fd5b61104e611c96565b611056611c96565b61105e611cb4565b6000611068611c96565b611070611c96565b6000888060200190516101a081101561108857600080fd5b5060e08101516101808201519198506040890197506080890196509450610100880193506101408801925090506110db878787600060200201518860016020020151896002602002015189898989611188565b6003866040516020018083815260200182600260200280838360005b8381101561110f5781810151838201526020016110f7565b50505050905001925050506040516020818303038152906040528051906020012060001c975050505050505050919050565b60408051602080820196909652808201949094526001600160a01b039290921660608401526080808401919091528151808403909101815260a09092019052805191012090565b611191896113d5565b6111e2576040805162461bcd60e51b815260206004820152601a60248201527f7075626c6963206b6579206973206e6f74206f6e206375727665000000000000604482015290519081900360640190fd5b6111eb886113d5565b611234576040805162461bcd60e51b815260206004820152601560248201527467616d6d61206973206e6f74206f6e20637572766560581b604482015290519081900360640190fd5b61123d836113d5565b61128e576040805162461bcd60e51b815260206004820152601d60248201527f6347616d6d615769746e657373206973206e6f74206f6e206375727665000000604482015290519081900360640190fd5b611297826113d5565b6112e8576040805162461bcd60e51b815260206004820152601c60248201527f73486173685769746e657373206973206e6f74206f6e20637572766500000000604482015290519081900360640190fd5b6112f4878a88876113ff565b611345576040805162461bcd60e51b815260206004820152601a60248201527f6164647228632a706b2b732a6729e289a05f755769746e657373000000000000604482015290519081900360640190fd5b61134d611c96565b6113578a8761152d565b9050611361611c96565b611370898b878b8689896115d0565b90506000611381838d8d8a866116db565b9050808a146113c7576040805162461bcd60e51b815260206004820152600d60248201526c34b73b30b634b210383937b7b360991b604482015290519081900360640190fd5b505050505050505050505050565b60208101516000906401000003d0199080096113f88360005b60200201516117e4565b1492915050565b60006001600160a01b03821661144a576040805162461bcd60e51b815260206004820152600b60248201526a626164207769746e65737360a81b604482015290519081900360640190fd5b60208401516000906001161561146157601c611464565b601b5b9050600070014551231950b75fc4402da1732fc9bebe1985876000602002015109865170014551231950b75fc4402da1732fc9bebe1991820392506000919089098751604080516000808252602082810180855288905260ff8916838501526060830194909452608082018590529151939450909260019260a0808401939192601f1981019281900390910190855afa158015611505573d6000803e3d6000fd5b5050604051601f1901516001600160a01b039081169088161495505050505050949350505050565b611535611c96565b611593600184846040516020018084815260200183600260200280838360005b8381101561156d578181015183820152602001611555565b505050509050018281526020019350505050604051602081830303815290604052611808565b90505b61159f816113d5565b610bf35780516040805160208181019390935281518082039093018352810190526115c990611808565b9050611596565b6115d8611c96565b825186516401000003d01991900306611638576040805162461bcd60e51b815260206004820152601e60248201527f706f696e747320696e2073756d206d7573742062652064697374696e63740000604482015290519081900360640190fd5b611643878988611856565b61167e5760405162461bcd60e51b8152600401808060200182810382526021815260200180611d0f6021913960400191505060405180910390fd5b611689848685611856565b6116c45760405162461bcd60e51b8152600401808060200182810382526022815260200180611d306022913960400191505060405180910390fd5b6116cf868484611976565b98975050505050505050565b6000600286868685876040516020018087815260200186600260200280838360005b838110156117155781810151838201526020016116fd565b5050505090500185600260200280838360005b83811015611740578181015183820152602001611728565b5050505090500184600260200280838360005b8381101561176b578181015183820152602001611753565b5050505090500183600260200280838360005b8381101561179657818101518382015260200161177e565b50505050905001826001600160a01b03166001600160a01b031660601b815260140196505050505050506040516020818303038152906040528051906020012060001c905095945050505050565b6000806401000003d01980848509840990506401000003d019600782089392505050565b611810611c96565b61181982611a3c565b815261182e6118298260006113ee565b611a77565b6020820181905260029006600114156105c5576020810180516401000003d019039052919050565b60008261186257600080fd5b835160208501516000906001161561187b57601c61187e565b601b5b9050600070014551231950b75fc4402da1732fc9bebe19838709604080516000808252602080830180855282905260ff871683850152606083018890526080830185905292519394509260019260a0808401939192601f1981019281900390910190855afa1580156118f4573d6000803e3d6000fd5b5050506020604051035190506000866040516020018082600260200280838360005b8381101561192e578181015183820152602001611916565b505050509050019150506040516020818303038152906040528051906020012060001c9050806001600160a01b0316826001600160a01b031614955050505050509392505050565b61197e611c96565b83516020808601518551918601516000938493849361199f93909190611a8d565b919450925090506401000003d019858209600114611a04576040805162461bcd60e51b815260206004820152601960248201527f696e765a206d75737420626520696e7665727365206f66207a00000000000000604482015290519081900360640190fd5b60405180604001604052806401000003d01980611a1d57fe5b87860981526020016401000003d0198785099052979650505050505050565b805160208201205b6401000003d01981106105c557604080516020808201939093528151808203840181529082019091528051910120611a44565b6000610bf38263400000f4600160fe1b03611b6d565b60008080600180826401000003d019896401000003d019038808905060006401000003d0198b6401000003d019038a0890506000611acd83838585611c09565b9098509050611ade88828e88611c2d565b9098509050611aef88828c87611c2d565b90985090506000611b028d878b85611c2d565b9098509050611b1388828686611c09565b9098509050611b2488828e89611c2d565b9098509050818114611b59576401000003d019818a0998506401000003d01982890997506401000003d0198183099650611b5d565b8196505b5050505050509450945094915050565b600080611b78611cd2565b6020808252818101819052604082015260608101859052608081018490526401000003d01960a0820152611baa611cf0565b60208160c0846005600019fa925082611bff576040805162461bcd60e51b81526020600482015260126024820152716269674d6f64457870206661696c7572652160701b604482015290519081900360640190fd5b5195945050505050565b6000806401000003d0198487096401000003d0198487099097909650945050505050565b600080806401000003d019878509905060006401000003d01987876401000003d019030990506401000003d0198183086401000003d01986890990999098509650505050505050565b604080516060810182526000808252602082018190529181019190915290565b60405180604001604052806002906020820280368337509192915050565b60405180606001604052806003906020820280368337509192915050565b6040518060c001604052806006906020820280368337509192915050565b6040518060200160405280600190602082028036833750919291505056fe4669727374206d756c7469706c69636174696f6e20636865636b206661696c65645365636f6e64206d756c7469706c69636174696f6e20636865636b206661696c6564796f752063616e277420636861726765206d6f7265207468616e20616c6c207468652056524620696e2074686520776f726c642c20677265656479a2646970667358221220814ae50267bb50e3856f045ff8f1441b4696cc884c69f2fe9ed5536aba0bb07b64736f6c63430006060033",
  "immutableReferences": {},
  "source": "pragma solidity 0.6.6;\n\nimport \"./vendor/SafeMath.sol\";\n\nimport \"./interfaces/VORTokenInterface.sol\";\nimport \"./interfaces/BlockHashStoreInterface.sol\";\n\nimport \"./VRF.sol\";\nimport \"./VRFRequestIDBase.sol\";\nimport \"./VRFConsumerBase.sol\";\n\n/**\n * @title VRFCoordinator coordinates on-chain verifiable-randomness requests\n * @title with off-chain responses\n */\ncontract VRFCoordinator is VRF, VRFRequestIDBase {\n\n  using SafeMath for uint256;\n\n  VORTokenInterface internal Token;\n  BlockHashStoreInterface internal blockHashStore;\n\n  constructor(address _token, address _blockHashStore) public {\n    Token = VORTokenInterface(_token);\n    blockHashStore = BlockHashStoreInterface(_blockHashStore);\n  }\n\n  struct Callback { // Tracks an ongoing request\n    address callbackContract; // Requesting contract, which will receive response\n    // Amount of VRF paid at request time. Total VRF = 1e9 * 1e18 < 2^96, so\n    // this representation is adequate, and saves a word of storage when this\n    // field follows the 160-bit callbackContract address.\n    uint96 randomnessFee;\n    // Commitment to seed passed to oracle by this contract, and the number of\n    // the block in which the request appeared. This is the keccak256 of the\n    // concatenation of those values. Storing this commitment saves a word of\n    // storage.\n    bytes32 seedAndBlockNum;\n  }\n\n  struct ServiceAgreement { // Tracks oracle commitments to VRF service\n    address vRFOracle; // Oracle committing to respond with VRF service\n    uint96 fee; // Minimum payment for oracle response. Total VRF=1e9*1e18<2^96\n    bytes32 jobID; // ID of corresponding VOR job in oracle's DB\n  }\n\n  mapping(bytes32 /* (provingKey, seed) */ => Callback) public callbacks;\n  mapping(bytes32 /* provingKey */ => ServiceAgreement)\n    public serviceAgreements;\n  mapping(address /* oracle */ => uint256 /* VRF balance */)\n    public withdrawableTokens;\n  mapping(bytes32 /* provingKey */ => mapping(address /* consumer */ => uint256))\n    private nonces;\n\n  // The oracle only needs the jobID to look up the VRF, but specifying public\n  // key as well prevents a malicious oracle from inducing VRF outputs from\n  // another oracle by reusing the jobID.\n  event RandomnessRequest(\n    bytes32 keyHash,\n    uint256 seed,\n    bytes32 indexed jobID,\n    address sender,\n    uint256 fee,\n    bytes32 requestID);\n\n  event NewServiceAgreement(bytes32 keyHash, uint256 fee);\n\n  event RandomnessRequestFulfilled(bytes32 requestId, uint256 output);\n\n  /**\n   * @notice Commits calling address to serve randomness\n   * @param _fee minimum VRF payment required to serve randomness\n   * @param _oracle the address of the VOR node with the proving key and job\n   * @param _publicProvingKey public key used to prove randomness\n   * @param _jobID ID of the corresponding VOR job in the oracle's db\n   */\n  function registerProvingKey(\n    uint256 _fee, address _oracle, uint256[2] calldata _publicProvingKey, bytes32 _jobID\n  )\n    external\n  {\n    bytes32 keyHash = hashOfKey(_publicProvingKey);\n    address oldVRFOracle = serviceAgreements[keyHash].vRFOracle;\n    require(oldVRFOracle == address(0), \"please register a new key\");\n    require(_oracle != address(0), \"_oracle must not be 0x0\");\n    serviceAgreements[keyHash].vRFOracle = _oracle;\n    serviceAgreements[keyHash].jobID = _jobID;\n    // Yes, this revert message doesn't fit in a word\n    require(_fee <= 1e9 ether,\n      \"you can't charge more than all the VRF in the world, greedy\");\n    serviceAgreements[keyHash].fee = uint96(_fee);\n    emit NewServiceAgreement(keyHash, _fee);\n  }\n\n  /**\n   * @notice Called by VRF Token.transferAndCall, on successful VRF transfer\n   *\n   * @dev To invoke this, use the requestRandomness method in VRFConsumerBase.\n   *\n   * @dev The VRFCoordinator will call back to the calling contract when the\n   * @dev oracle responds, on the method fulfillRandomness. See\n   * @dev VRFConsumerBase.fulfilRandomness for its signature. Your consuming\n   * @dev contract should inherit from VRFConsumerBase, and implement\n   * @dev fulfilRandomness.\n   *\n   * @param _sender address: who sent the VRF (must be a contract)\n   * @param _fee amount of VRF sent\n   * @param _data abi-encoded call to randomnessRequest\n   */\n  function onTokenTransfer(address _sender, uint256 _fee, bytes memory _data)\n    public\n    onlyVRFToken\n  {\n    (bytes32 keyHash, uint256 seed) = abi.decode(_data, (bytes32, uint256));\n    randomnessRequest(keyHash, seed, _fee, _sender);\n  }\n\n  /**\n   * @notice creates the VOR request for randomness\n   *\n   * @param _keyHash ID of the VRF public key against which to generate output\n   * @param _consumerSeed Input to the VRF, from which randomness is generated\n   * @param _feePaid Amount of VRF sent with request. Must exceed fee for key\n   * @param _sender Requesting contract; to be called back with VRF output\n   *\n   * @dev _consumerSeed is mixed with key hash, sender address and nonce to\n   * @dev obtain preSeed, which is passed to VRF oracle, which mixes it with the\n   * @dev hash of the block containing this request, to compute the final seed.\n   *\n   * @dev The requestId used to store the request data is constructed from the\n   * @dev preSeed and keyHash.\n   */\n  function randomnessRequest(\n    bytes32 _keyHash,\n    uint256 _consumerSeed,\n    uint256 _feePaid,\n    address _sender\n  )\n    internal\n    sufficientToken(_feePaid, _keyHash)\n  {\n    uint256 nonce = nonces[_keyHash][_sender];\n    uint256 preSeed = makeVRFInputSeed(_keyHash, _consumerSeed, _sender, nonce);\n    bytes32 requestId = makeRequestId(_keyHash, preSeed);\n    // Cryptographically guaranteed by preSeed including an increasing nonce\n    assert(callbacks[requestId].callbackContract == address(0));\n    callbacks[requestId].callbackContract = _sender;\n    assert(_feePaid < 1e27); // Total VRF fits in uint96\n    callbacks[requestId].randomnessFee = uint96(_feePaid);\n    callbacks[requestId].seedAndBlockNum = keccak256(abi.encodePacked(\n      preSeed, block.number));\n    emit RandomnessRequest(_keyHash, preSeed, serviceAgreements[_keyHash].jobID,\n      _sender, _feePaid, requestId);\n    nonces[_keyHash][_sender] = nonces[_keyHash][_sender].add(1);\n  }\n\n  // Offsets into fulfillRandomnessRequest's _proof of various values\n  //\n  // Public key. Skips byte array's length prefix.\n  uint256 public constant PUBLIC_KEY_OFFSET = 0x20;\n  // Seed is 7th word in proof, plus word for length, (6+1)*0x20=0xe0\n  uint256 public constant PRESEED_OFFSET = 0xe0;\n\n  /**\n   * @notice Called by the VOR node to fulfill requests\n   *\n   * @param _proof the proof of randomness. Actual random output built from this\n   *\n   * @dev The structure of _proof corresponds to vrf.MarshaledOnChainResponse,\n   * @dev in the node source code. I.e., it is a vrf.MarshaledProof with the\n   * @dev seed replaced by the preSeed, followed by the hash of the requesting\n   * @dev block.\n   */\n  function fulfillRandomnessRequest(bytes memory _proof) public {\n    (bytes32 currentKeyHash, Callback memory callback, bytes32 requestId,\n     uint256 randomness) = getRandomnessFromProof(_proof);\n\n    // Pay oracle\n    address oadd = serviceAgreements[currentKeyHash].vRFOracle;\n    withdrawableTokens[oadd] = withdrawableTokens[oadd].add(\n      callback.randomnessFee);\n\n    // Forget request. Must precede callback (prevents reentrancy)\n    delete callbacks[requestId];\n    callBackWithRandomness(requestId, randomness, callback.callbackContract);\n\n    emit RandomnessRequestFulfilled(requestId, randomness);\n  }\n\n  function callBackWithRandomness(bytes32 requestId, uint256 randomness,\n    address consumerContract) internal {\n    // Dummy variable; allows access to method selector in next line. See\n    // https://github.com/ethereum/solidity/issues/3506#issuecomment-553727797\n    VRFConsumerBase v;\n    bytes memory resp = abi.encodeWithSelector(\n      v.rawFulfillRandomness.selector, requestId, randomness);\n    // The bound b here comes from https://eips.ethereum.org/EIPS/eip-150. The\n    // actual gas available to the consuming contract will be b-floor(b/64).\n    // This is chosen to leave the consuming contract ~200k gas, after the cost\n    // of the call itself.\n    uint256 b = 206000;\n    require(gasleft() >= b, \"not enough gas for consumer\");\n    // A low-level call is necessary, here, because we don't want the consuming\n    // contract to be able to revert this execution, and thus deny the oracle\n    // payment for a valid randomness response. This also necessitates the above\n    // check on the gasleft, as otherwise there would be no indication if the\n    // callback method ran out of gas.\n    //\n    // solhint-disable-next-line avoid-low-level-calls\n    (bool success,) = consumerContract.call(resp);\n    // Avoid unused-local-variable warning. (success is only present to prevent\n    // a warning that the return value of consumerContract.call is unused.)\n    (success);\n  }\n\n  function getRandomnessFromProof(bytes memory _proof)\n    internal view returns (bytes32 currentKeyHash, Callback memory callback,\n      bytes32 requestId, uint256 randomness) {\n    // blockNum follows proof, which follows length word (only direct-number\n    // constants are allowed in assembly, so have to compute this in code)\n    uint256 BLOCKNUM_OFFSET = 0x20 + PROOF_LENGTH;\n    // _proof.length skips the initial length word, so not including the\n    // blocknum in this length check balances out.\n    require(_proof.length == BLOCKNUM_OFFSET, \"wrong proof length\");\n    uint256[2] memory publicKey;\n    uint256 preSeed;\n    uint256 blockNum;\n    assembly { // solhint-disable-line no-inline-assembly\n      publicKey := add(_proof, PUBLIC_KEY_OFFSET)\n      preSeed := mload(add(_proof, PRESEED_OFFSET))\n      blockNum := mload(add(_proof, BLOCKNUM_OFFSET))\n    }\n    currentKeyHash = hashOfKey(publicKey);\n    requestId = makeRequestId(currentKeyHash, preSeed);\n    callback = callbacks[requestId];\n    require(callback.callbackContract != address(0), \"no corresponding request\");\n    require(callback.seedAndBlockNum == keccak256(abi.encodePacked(preSeed,\n      blockNum)), \"wrong preSeed or block num\");\n\n    bytes32 blockHash = blockhash(blockNum);\n    if (blockHash == bytes32(0)) {\n      blockHash = blockHashStore.getBlockhash(blockNum);\n      require(blockHash != bytes32(0), \"please prove blockhash\");\n    }\n    // The seed actually used by the VRF machinery, mixing in the blockhash\n    uint256 actualSeed = uint256(keccak256(abi.encodePacked(preSeed, blockHash)));\n    // solhint-disable-next-line no-inline-assembly\n    assembly { // Construct the actual proof from the remains of _proof\n      mstore(add(_proof, PRESEED_OFFSET), actualSeed)\n      mstore(_proof, PROOF_LENGTH)\n    }\n    randomness = VRF.randomValueFromVRFProof(_proof); // Reverts on failure\n  }\n\n  /**\n   * @dev Allows the oracle operator to withdraw their VRF Token\n   * @param _recipient is the address the funds will be sent to\n   * @param _amount is the amount of VRF Token transferred from the Coordinator contract\n   */\n  function withdraw(address _recipient, uint256 _amount)\n    external\n    hasAvailableFunds(_amount)\n  {\n    withdrawableTokens[msg.sender] = withdrawableTokens[msg.sender].sub(_amount);\n    assert(Token.transfer(_recipient, _amount));\n  }\n\n  /**\n   * @notice Returns the serviceAgreements key associated with this public key\n   * @param _publicKey the key to return the address for\n   */\n  function hashOfKey(uint256[2] memory _publicKey) public pure returns (bytes32) {\n    return keccak256(abi.encodePacked(_publicKey));\n  }\n\n  /**\n   * @dev Reverts if amount is not at least what was agreed upon in the service agreement\n   * @param _feePaid The payment for the request\n   * @param _keyHash The key which the request is for\n   */\n  modifier sufficientToken(uint256 _feePaid, bytes32 _keyHash) {\n    require(_feePaid >= serviceAgreements[_keyHash].fee, \"Below agreed payment\");\n    _;\n  }\n\n/**\n   * @dev Reverts if not sent from the VRF token\n   */\n  modifier onlyVRFToken() {\n    require(msg.sender == address(Token), \"Must use VRF token\");\n    _;\n  }\n\n  /**\n   * @dev Reverts if amount requested is greater than withdrawable balance\n   * @param _amount The given amount to compare to `withdrawableTokens`\n   */\n  modifier hasAvailableFunds(uint256 _amount) {\n    require(withdrawableTokens[msg.sender] >= _amount, \"can't withdraw more than balance\");\n    _;\n  }\n\n}",
  "sourcePath": "/Volumes/Untitled/Projects/VOR/VOR-Contracts/contracts/VRFCoordinator.sol",
  "compiler": {
    "name": "solc",
    "version": "0.6.6+commit.6c089d02.Emscripten.clang"
  },
  "schemaVersion": "3.2.4",
  "updatedAt": "2020-12-07T00:53:44.934Z",
  "networkType": "ethereum",
  "devdoc": {
    "methods": {
      "fulfillRandomnessRequest(bytes)": {
        "details": "The structure of _proof corresponds to vrf.MarshaledOnChainResponse,in the node source code. I.e., it is a vrf.MarshaledProof with theseed replaced by the preSeed, followed by the hash of the requestingblock.",
        "params": {
          "_proof": "the proof of randomness. Actual random output built from this"
        }
      },
      "hashOfKey(uint256[2])": {
        "params": {
          "_publicKey": "the key to return the address for"
        }
      },
      "onTokenTransfer(address,uint256,bytes)": {
        "details": "To invoke this, use the requestRandomness method in VRFConsumerBase.The VRFCoordinator will call back to the calling contract when theoracle responds, on the method fulfillRandomness. SeeVRFConsumerBase.fulfilRandomness for its signature. Your consumingcontract should inherit from VRFConsumerBase, and implementfulfilRandomness.",
        "params": {
          "_data": "abi-encoded call to randomnessRequest",
          "_fee": "amount of VRF sent",
          "_sender": "address: who sent the VRF (must be a contract)"
        }
      },
      "registerProvingKey(uint256,address,uint256[2],bytes32)": {
        "params": {
          "_fee": "minimum VRF payment required to serve randomness",
          "_jobID": "ID of the corresponding VOR job in the oracle's db",
          "_oracle": "the address of the VOR node with the proving key and job",
          "_publicProvingKey": "public key used to prove randomness"
        }
      },
      "withdraw(address,uint256)": {
        "details": "Allows the oracle operator to withdraw their VRF Token",
        "params": {
          "_amount": "is the amount of VRF Token transferred from the Coordinator contract",
          "_recipient": "is the address the funds will be sent to"
        }
      }
    },
    "title": "VRFCoordinator coordinates on-chain verifiable-randomness requestswith off-chain responses"
  },
  "userdoc": {
    "methods": {
      "fulfillRandomnessRequest(bytes)": {
        "notice": "Called by the VOR node to fulfill requests"
      },
      "hashOfKey(uint256[2])": {
        "notice": "Returns the serviceAgreements key associated with this public key"
      },
      "onTokenTransfer(address,uint256,bytes)": {
        "notice": "Called by VRF Token.transferAndCall, on successful VRF transfer"
      },
      "registerProvingKey(uint256,address,uint256[2],bytes32)": {
        "notice": "Commits calling address to serve randomness"
      }
    }
  }
}